{
  "_format": "hh-sol-artifact-1",
  "contractName": "CauseFund",
  "sourceName": "contracts/Cause.sol",
  "abi": [
    {
      "anonymous": false,
      "inputs": [
        {
          "indexed": false,
          "internalType": "uint256",
          "name": "causeId",
          "type": "uint256"
        },
        {
          "indexed": false,
          "internalType": "string",
          "name": "name",
          "type": "string"
        },
        {
          "indexed": false,
          "internalType": "string",
          "name": "description",
          "type": "string"
        },
        {
          "indexed": false,
          "internalType": "string",
          "name": "imageURL",
          "type": "string"
        }
      ],
      "name": "CauseAdded",
      "type": "event"
    },
    {
      "anonymous": false,
      "inputs": [
        {
          "indexed": true,
          "internalType": "address",
          "name": "previousOwner",
          "type": "address"
        },
        {
          "indexed": true,
          "internalType": "address",
          "name": "newOwner",
          "type": "address"
        }
      ],
      "name": "OwnershipTransferred",
      "type": "event"
    },
    {
      "inputs": [
        {
          "internalType": "string",
          "name": "_name",
          "type": "string"
        },
        {
          "internalType": "string",
          "name": "_description",
          "type": "string"
        },
        {
          "internalType": "string",
          "name": "_imageURL",
          "type": "string"
        }
      ],
      "name": "addCause",
      "outputs": [],
      "stateMutability": "nonpayable",
      "type": "function"
    },
    {
      "inputs": [],
      "name": "causeCount",
      "outputs": [
        {
          "internalType": "uint256",
          "name": "",
          "type": "uint256"
        }
      ],
      "stateMutability": "view",
      "type": "function"
    },
    {
      "inputs": [
        {
          "internalType": "uint256",
          "name": "",
          "type": "uint256"
        }
      ],
      "name": "causes",
      "outputs": [
        {
          "internalType": "string",
          "name": "name",
          "type": "string"
        },
        {
          "internalType": "string",
          "name": "description",
          "type": "string"
        },
        {
          "internalType": "string",
          "name": "imageURL",
          "type": "string"
        },
        {
          "internalType": "uint256",
          "name": "totalDonations",
          "type": "uint256"
        }
      ],
      "stateMutability": "view",
      "type": "function"
    },
    {
      "inputs": [
        {
          "internalType": "uint256",
          "name": "_causeId",
          "type": "uint256"
        }
      ],
      "name": "getCause",
      "outputs": [
        {
          "components": [
            {
              "internalType": "string",
              "name": "name",
              "type": "string"
            },
            {
              "internalType": "string",
              "name": "description",
              "type": "string"
            },
            {
              "internalType": "string",
              "name": "imageURL",
              "type": "string"
            },
            {
              "internalType": "uint256",
              "name": "totalDonations",
              "type": "uint256"
            }
          ],
          "internalType": "struct CauseFund.Cause",
          "name": "",
          "type": "tuple"
        }
      ],
      "stateMutability": "view",
      "type": "function"
    },
    {
      "inputs": [],
      "name": "getCauseCount",
      "outputs": [
        {
          "internalType": "uint256",
          "name": "",
          "type": "uint256"
        }
      ],
      "stateMutability": "view",
      "type": "function"
    },
    {
      "inputs": [],
      "name": "owner",
      "outputs": [
        {
          "internalType": "address",
          "name": "",
          "type": "address"
        }
      ],
      "stateMutability": "view",
      "type": "function"
    },
    {
      "inputs": [],
      "name": "renounceOwnership",
      "outputs": [],
      "stateMutability": "nonpayable",
      "type": "function"
    },
    {
      "inputs": [
        {
          "internalType": "address",
          "name": "newOwner",
          "type": "address"
        }
      ],
      "name": "transferOwnership",
      "outputs": [],
      "stateMutability": "nonpayable",
      "type": "function"
    }
  ],
  "bytecode": "0x608060405234801561001057600080fd5b5061002d61002261003260201b60201c565b61003a60201b60201c565b6100fe565b600033905090565b60008060009054906101000a900473ffffffffffffffffffffffffffffffffffffffff169050816000806101000a81548173ffffffffffffffffffffffffffffffffffffffff021916908373ffffffffffffffffffffffffffffffffffffffff1602179055508173ffffffffffffffffffffffffffffffffffffffff168173ffffffffffffffffffffffffffffffffffffffff167f8be0079c531659141344cd1fd0a4f28419497f9722a3daafe3b4186f6b6457e060405160405180910390a35050565b6113158061010d6000396000f3fe608060405234801561001057600080fd5b50600436106100885760003560e01c80638fce8dd71161005b5780638fce8dd7146101045780639a79edec14610134578063a8d0607514610152578063f2fde38b1461017057610088565b806325dd26081461008d578063538a942a146100a9578063715018a6146100dc5780638da5cb5b146100e6575b600080fd5b6100a760048036038101906100a29190610a18565b61018c565b005b6100c360048036038101906100be9190610af5565b610276565b6040516100d39493929190610bb0565b60405180910390f35b6100e461043e565b005b6100ee610452565b6040516100fb9190610c4b565b60405180910390f35b61011e60048036038101906101199190610af5565b61047b565b60405161012b9190610d30565b60405180910390f35b61013c6106b9565b6040516101499190610d52565b60405180910390f35b61015a6106bf565b6040516101679190610d52565b60405180910390f35b61018a60048036038101906101859190610d99565b6106c9565b005b61019461074c565b600260008154809291906101a790610df5565b91905055506040518060800160405280848152602001838152602001828152602001600081525060016000600254815260200190815260200160002060008201518160000190816101f89190611049565b50602082015181600101908161020e9190611049565b5060408201518160020190816102249190611049565b50606082015181600301559050507fdb35bd1dfd62e585b97e658f86d1fa3717df187124056d1fd9299e19baf8a6d6600254848484604051610269949392919061111b565b60405180910390a1505050565b600160205280600052604060002060009150905080600001805461029990610e6c565b80601f01602080910402602001604051908101604052809291908181526020018280546102c590610e6c565b80156103125780601f106102e757610100808354040283529160200191610312565b820191906000526020600020905b8154815290600101906020018083116102f557829003601f168201915b50505050509080600101805461032790610e6c565b80601f016020809104026020016040519081016040528092919081815260200182805461035390610e6c565b80156103a05780601f10610375576101008083540402835291602001916103a0565b820191906000526020600020905b81548152906001019060200180831161038357829003601f168201915b5050505050908060020180546103b590610e6c565b80601f01602080910402602001604051908101604052809291908181526020018280546103e190610e6c565b801561042e5780601f106104035761010080835404028352916020019161042e565b820191906000526020600020905b81548152906001019060200180831161041157829003601f168201915b5050505050908060030154905084565b61044661074c565b61045060006107ca565b565b60008060009054906101000a900473ffffffffffffffffffffffffffffffffffffffff16905090565b610483610896565b60008211801561049557506002548211155b6104d4576040517f08c379a00000000000000000000000000000000000000000000000000000000081526004016104cb906111c1565b60405180910390fd5b6001600083815260200190815260200160002060405180608001604052908160008201805461050290610e6c565b80601f016020809104026020016040519081016040528092919081815260200182805461052e90610e6c565b801561057b5780601f106105505761010080835404028352916020019161057b565b820191906000526020600020905b81548152906001019060200180831161055e57829003601f168201915b5050505050815260200160018201805461059490610e6c565b80601f01602080910402602001604051908101604052809291908181526020018280546105c090610e6c565b801561060d5780601f106105e25761010080835404028352916020019161060d565b820191906000526020600020905b8154815290600101906020018083116105f057829003601f168201915b5050505050815260200160028201805461062690610e6c565b80601f016020809104026020016040519081016040528092919081815260200182805461065290610e6c565b801561069f5780601f106106745761010080835404028352916020019161069f565b820191906000526020600020905b81548152906001019060200180831161068257829003601f168201915b505050505081526020016003820154815250509050919050565b60025481565b6000600254905090565b6106d161074c565b600073ffffffffffffffffffffffffffffffffffffffff168173ffffffffffffffffffffffffffffffffffffffff1603610740576040517f08c379a000000000000000000000000000000000000000000000000000000000815260040161073790611253565b60405180910390fd5b610749816107ca565b50565b61075461088e565b73ffffffffffffffffffffffffffffffffffffffff16610772610452565b73ffffffffffffffffffffffffffffffffffffffff16146107c8576040517f08c379a00000000000000000000000000000000000000000000000000000000081526004016107bf906112bf565b60405180910390fd5b565b60008060009054906101000a900473ffffffffffffffffffffffffffffffffffffffff169050816000806101000a81548173ffffffffffffffffffffffffffffffffffffffff021916908373ffffffffffffffffffffffffffffffffffffffff1602179055508173ffffffffffffffffffffffffffffffffffffffff168173ffffffffffffffffffffffffffffffffffffffff167f8be0079c531659141344cd1fd0a4f28419497f9722a3daafe3b4186f6b6457e060405160405180910390a35050565b600033905090565b6040518060800160405280606081526020016060815260200160608152602001600081525090565b6000604051905090565b600080fd5b600080fd5b600080fd5b600080fd5b6000601f19601f8301169050919050565b7f4e487b7100000000000000000000000000000000000000000000000000000000600052604160045260246000fd5b610925826108dc565b810181811067ffffffffffffffff82111715610944576109436108ed565b5b80604052505050565b60006109576108be565b9050610963828261091c565b919050565b600067ffffffffffffffff821115610983576109826108ed565b5b61098c826108dc565b9050602081019050919050565b82818337600083830152505050565b60006109bb6109b684610968565b61094d565b9050828152602081018484840111156109d7576109d66108d7565b5b6109e2848285610999565b509392505050565b600082601f8301126109ff576109fe6108d2565b5b8135610a0f8482602086016109a8565b91505092915050565b600080600060608486031215610a3157610a306108c8565b5b600084013567ffffffffffffffff811115610a4f57610a4e6108cd565b5b610a5b868287016109ea565b935050602084013567ffffffffffffffff811115610a7c57610a7b6108cd565b5b610a88868287016109ea565b925050604084013567ffffffffffffffff811115610aa957610aa86108cd565b5b610ab5868287016109ea565b9150509250925092565b6000819050919050565b610ad281610abf565b8114610add57600080fd5b50565b600081359050610aef81610ac9565b92915050565b600060208284031215610b0b57610b0a6108c8565b5b6000610b1984828501610ae0565b91505092915050565b600081519050919050565b600082825260208201905092915050565b60005b83811015610b5c578082015181840152602081019050610b41565b60008484015250505050565b6000610b7382610b22565b610b7d8185610b2d565b9350610b8d818560208601610b3e565b610b96816108dc565b840191505092915050565b610baa81610abf565b82525050565b60006080820190508181036000830152610bca8187610b68565b90508181036020830152610bde8186610b68565b90508181036040830152610bf28185610b68565b9050610c016060830184610ba1565b95945050505050565b600073ffffffffffffffffffffffffffffffffffffffff82169050919050565b6000610c3582610c0a565b9050919050565b610c4581610c2a565b82525050565b6000602082019050610c606000830184610c3c565b92915050565b600082825260208201905092915050565b6000610c8282610b22565b610c8c8185610c66565b9350610c9c818560208601610b3e565b610ca5816108dc565b840191505092915050565b610cb981610abf565b82525050565b60006080830160008301518482036000860152610cdc8282610c77565b91505060208301518482036020860152610cf68282610c77565b91505060408301518482036040860152610d108282610c77565b9150506060830151610d256060860182610cb0565b508091505092915050565b60006020820190508181036000830152610d4a8184610cbf565b905092915050565b6000602082019050610d676000830184610ba1565b92915050565b610d7681610c2a565b8114610d8157600080fd5b50565b600081359050610d9381610d6d565b92915050565b600060208284031215610daf57610dae6108c8565b5b6000610dbd84828501610d84565b91505092915050565b7f4e487b7100000000000000000000000000000000000000000000000000000000600052601160045260246000fd5b6000610e0082610abf565b91507fffffffffffffffffffffffffffffffffffffffffffffffffffffffffffffffff8203610e3257610e31610dc6565b5b600182019050919050565b7f4e487b7100000000000000000000000000000000000000000000000000000000600052602260045260246000fd5b60006002820490506001821680610e8457607f821691505b602082108103610e9757610e96610e3d565b5b50919050565b60008190508160005260206000209050919050565b60006020601f8301049050919050565b600082821b905092915050565b600060088302610eff7fffffffffffffffffffffffffffffffffffffffffffffffffffffffffffffffff82610ec2565b610f098683610ec2565b95508019841693508086168417925050509392505050565b6000819050919050565b6000610f46610f41610f3c84610abf565b610f21565b610abf565b9050919050565b6000819050919050565b610f6083610f2b565b610f74610f6c82610f4d565b848454610ecf565b825550505050565b600090565b610f89610f7c565b610f94818484610f57565b505050565b5b81811015610fb857610fad600082610f81565b600181019050610f9a565b5050565b601f821115610ffd57610fce81610e9d565b610fd784610eb2565b81016020851015610fe6578190505b610ffa610ff285610eb2565b830182610f99565b50505b505050565b600082821c905092915050565b600061102060001984600802611002565b1980831691505092915050565b6000611039838361100f565b9150826002028217905092915050565b61105282610b22565b67ffffffffffffffff81111561106b5761106a6108ed565b5b6110758254610e6c565b611080828285610fbc565b600060209050601f8311600181146110b357600084156110a1578287015190505b6110ab858261102d565b865550611113565b601f1984166110c186610e9d565b60005b828110156110e9578489015182556001820191506020850194506020810190506110c4565b868310156111065784890151611102601f89168261100f565b8355505b6001600288020188555050505b505050505050565b60006080820190506111306000830187610ba1565b81810360208301526111428186610b68565b905081810360408301526111568185610b68565b9050818103606083015261116a8184610b68565b905095945050505050565b7f4361757361206e6f20656e636f6e747261646100000000000000000000000000600082015250565b60006111ab601383610b2d565b91506111b682611175565b602082019050919050565b600060208201905081810360008301526111da8161119e565b9050919050565b7f4f776e61626c653a206e6577206f776e657220697320746865207a65726f206160008201527f6464726573730000000000000000000000000000000000000000000000000000602082015250565b600061123d602683610b2d565b9150611248826111e1565b604082019050919050565b6000602082019050818103600083015261126c81611230565b9050919050565b7f4f776e61626c653a2063616c6c6572206973206e6f7420746865206f776e6572600082015250565b60006112a9602083610b2d565b91506112b482611273565b602082019050919050565b600060208201905081810360008301526112d88161129c565b905091905056fea2646970667358221220cc3061f776b215e39185a63e250a115f782d52771ac0039ca686596d86deb1fb64736f6c63430008180033",
  "linkReferences": {},
  "deployedLinkReferences": {}
}