{
  "_format": "hh-sol-artifact-1",
  "contractName": "NewUsers",
  "sourceName": "contracts/User.sol",
  "abi": [
    {
      "anonymous": false,
      "inputs": [
        {
          "indexed": false,
          "internalType": "uint256",
          "name": "userId",
          "type": "uint256"
        },
        {
          "indexed": false,
          "internalType": "address",
          "name": "userAddress",
          "type": "address"
        }
      ],
      "name": "UserRegistered",
      "type": "event"
    },
    {
      "inputs": [
        {
          "internalType": "address",
          "name": "userAddress",
          "type": "address"
        }
      ],
      "name": "getUserByAddress",
      "outputs": [
        {
          "components": [
            {
              "internalType": "string",
              "name": "firstName",
              "type": "string"
            },
            {
              "internalType": "string",
              "name": "lastName",
              "type": "string"
            },
            {
              "internalType": "uint256",
              "name": "amountSpent",
              "type": "uint256"
            },
            {
              "internalType": "uint256",
              "name": "userId",
              "type": "uint256"
            },
            {
              "internalType": "address",
              "name": "userAddress",
              "type": "address"
            }
          ],
          "internalType": "struct NewUsers.User",
          "name": "",
          "type": "tuple"
        }
      ],
      "stateMutability": "view",
      "type": "function"
    },
    {
      "inputs": [],
      "name": "getUsers",
      "outputs": [
        {
          "components": [
            {
              "internalType": "string",
              "name": "firstName",
              "type": "string"
            },
            {
              "internalType": "string",
              "name": "lastName",
              "type": "string"
            },
            {
              "internalType": "uint256",
              "name": "amountSpent",
              "type": "uint256"
            },
            {
              "internalType": "uint256",
              "name": "userId",
              "type": "uint256"
            },
            {
              "internalType": "address",
              "name": "userAddress",
              "type": "address"
            }
          ],
          "internalType": "struct NewUsers.User[]",
          "name": "",
          "type": "tuple[]"
        }
      ],
      "stateMutability": "view",
      "type": "function"
    },
    {
      "inputs": [
        {
          "internalType": "string",
          "name": "firstName",
          "type": "string"
        },
        {
          "internalType": "string",
          "name": "lastName",
          "type": "string"
        },
        {
          "internalType": "address",
          "name": "userAddress",
          "type": "address"
        }
      ],
      "name": "registerUser",
      "outputs": [
        {
          "internalType": "uint256",
          "name": "",
          "type": "uint256"
        }
      ],
      "stateMutability": "nonpayable",
      "type": "function"
    },
    {
      "inputs": [
        {
          "internalType": "uint256",
          "name": "amount",
          "type": "uint256"
        }
      ],
      "name": "updateAmountSpent",
      "outputs": [],
      "stateMutability": "nonpayable",
      "type": "function"
    },
    {
      "inputs": [
        {
          "internalType": "address",
          "name": "",
          "type": "address"
        }
      ],
      "name": "userAddressToId",
      "outputs": [
        {
          "internalType": "uint256",
          "name": "",
          "type": "uint256"
        }
      ],
      "stateMutability": "view",
      "type": "function"
    },
    {
      "inputs": [
        {
          "internalType": "uint256",
          "name": "",
          "type": "uint256"
        }
      ],
      "name": "users",
      "outputs": [
        {
          "internalType": "string",
          "name": "firstName",
          "type": "string"
        },
        {
          "internalType": "string",
          "name": "lastName",
          "type": "string"
        },
        {
          "internalType": "uint256",
          "name": "amountSpent",
          "type": "uint256"
        },
        {
          "internalType": "uint256",
          "name": "userId",
          "type": "uint256"
        },
        {
          "internalType": "address",
          "name": "userAddress",
          "type": "address"
        }
      ],
      "stateMutability": "view",
      "type": "function"
    }
  ],
  "bytecode": "0x608060405234801561001057600080fd5b506115a7806100206000396000f3fe608060405234801561001057600080fd5b50600436106100615760003560e01c8062ce8e3e146100665780632c29bc7214610084578063365b98b2146100a057806369c212f6146100d457806388557b07146101045780639f78a94614610134575b600080fd5b61006e610164565b60405161007b9190610cd5565b60405180910390f35b61009e60048036038101906100999190610d37565b6103cc565b005b6100ba60048036038101906100b59190610d37565b610484565b6040516100cb959493929190610dcc565b60405180910390f35b6100ee60048036038101906100e99190610e59565b6105ea565b6040516100fb9190610f03565b60405180910390f35b61011e6004803603810190610119919061105a565b61082d565b60405161012b91906110e5565b60405180910390f35b61014e60048036038101906101499190610e59565b610a2b565b60405161015b91906110e5565b60405180910390f35b606060006101726000610a43565b67ffffffffffffffff81111561018b5761018a610f2f565b5b6040519080825280602002602001820160405280156101c457816020015b6101b1610a67565b8152602001906001900390816101a95790505b50905060005b6101d46000610a43565b8110156103c4576000600160006001846101ee919061112f565b81526020019081526020016000209050806040518060a001604052908160008201805461021a90611192565b80601f016020809104026020016040519081016040528092919081815260200182805461024690611192565b80156102935780601f1061026857610100808354040283529160200191610293565b820191906000526020600020905b81548152906001019060200180831161027657829003601f168201915b505050505081526020016001820180546102ac90611192565b80601f01602080910402602001604051908101604052809291908181526020018280546102d890611192565b80156103255780601f106102fa57610100808354040283529160200191610325565b820191906000526020600020905b81548152906001019060200180831161030857829003601f168201915b5050505050815260200160028201548152602001600382015481526020016004820160009054906101000a900473ffffffffffffffffffffffffffffffffffffffff1673ffffffffffffffffffffffffffffffffffffffff1673ffffffffffffffffffffffffffffffffffffffff16815250508383815181106103ab576103aa6111c3565b5b60200260200101819052505080806001019150506101ca565b508091505090565b6000600260003373ffffffffffffffffffffffffffffffffffffffff1673ffffffffffffffffffffffffffffffffffffffff16815260200190815260200160002054905060008103610453576040517f08c379a000000000000000000000000000000000000000000000000000000000815260040161044a9061123e565b60405180910390fd5b81600160008381526020019081526020016000206002016000828254610479919061112f565b925050819055505050565b60016020528060005260406000206000915090508060000180546104a790611192565b80601f01602080910402602001604051908101604052809291908181526020018280546104d390611192565b80156105205780601f106104f557610100808354040283529160200191610520565b820191906000526020600020905b81548152906001019060200180831161050357829003601f168201915b50505050509080600101805461053590611192565b80601f016020809104026020016040519081016040528092919081815260200182805461056190611192565b80156105ae5780601f10610583576101008083540402835291602001916105ae565b820191906000526020600020905b81548152906001019060200180831161059157829003601f168201915b5050505050908060020154908060030154908060040160009054906101000a900473ffffffffffffffffffffffffffffffffffffffff16905085565b6105f2610a67565b6000600260008473ffffffffffffffffffffffffffffffffffffffff1673ffffffffffffffffffffffffffffffffffffffff16815260200190815260200160002054905060008103610679576040517f08c379a00000000000000000000000000000000000000000000000000000000081526004016106709061123e565b60405180910390fd5b600160008281526020019081526020016000206040518060a00160405290816000820180546106a790611192565b80601f01602080910402602001604051908101604052809291908181526020018280546106d390611192565b80156107205780601f106106f557610100808354040283529160200191610720565b820191906000526020600020905b81548152906001019060200180831161070357829003601f168201915b5050505050815260200160018201805461073990611192565b80601f016020809104026020016040519081016040528092919081815260200182805461076590611192565b80156107b25780601f10610787576101008083540402835291602001916107b2565b820191906000526020600020905b81548152906001019060200180831161079557829003601f168201915b5050505050815260200160028201548152602001600382015481526020016004820160009054906101000a900473ffffffffffffffffffffffffffffffffffffffff1673ffffffffffffffffffffffffffffffffffffffff1673ffffffffffffffffffffffffffffffffffffffff1681525050915050919050565b600080600260008473ffffffffffffffffffffffffffffffffffffffff1673ffffffffffffffffffffffffffffffffffffffff16815260200190815260200160002054146108b0576040517f08c379a00000000000000000000000000000000000000000000000000000000081526004016108a7906112aa565b60405180910390fd5b6108ba6000610a51565b60006108c66000610a43565b90506040518060a00160405280868152602001858152602001600081526020018281526020018473ffffffffffffffffffffffffffffffffffffffff1681525060016000838152602001908152602001600020600082015181600001908161092e9190611476565b5060208201518160010190816109449190611476565b50604082015181600201556060820151816003015560808201518160040160006101000a81548173ffffffffffffffffffffffffffffffffffffffff021916908373ffffffffffffffffffffffffffffffffffffffff16021790555090505080600260008573ffffffffffffffffffffffffffffffffffffffff1673ffffffffffffffffffffffffffffffffffffffff168152602001908152602001600020819055507fb442efe467d2ef30e62927a3cae0afcbc799a8a0944d8a143332e4e5e51cee5d8184604051610a18929190611548565b60405180910390a1809150509392505050565b60026020528060005260406000206000915090505481565b600081600001549050919050565b6001816000016000828254019250508190555050565b6040518060a0016040528060608152602001606081526020016000815260200160008152602001600073ffffffffffffffffffffffffffffffffffffffff1681525090565b600081519050919050565b600082825260208201905092915050565b6000819050602082019050919050565b600081519050919050565b600082825260208201905092915050565b60005b83811015610b12578082015181840152602081019050610af7565b60008484015250505050565b6000601f19601f8301169050919050565b6000610b3a82610ad8565b610b448185610ae3565b9350610b54818560208601610af4565b610b5d81610b1e565b840191505092915050565b6000819050919050565b610b7b81610b68565b82525050565b600073ffffffffffffffffffffffffffffffffffffffff82169050919050565b6000610bac82610b81565b9050919050565b610bbc81610ba1565b82525050565b600060a0830160008301518482036000860152610bdf8282610b2f565b91505060208301518482036020860152610bf98282610b2f565b9150506040830151610c0e6040860182610b72565b506060830151610c216060860182610b72565b506080830151610c346080860182610bb3565b508091505092915050565b6000610c4b8383610bc2565b905092915050565b6000602082019050919050565b6000610c6b82610aac565b610c758185610ab7565b935083602082028501610c8785610ac8565b8060005b85811015610cc35784840389528151610ca48582610c3f565b9450610caf83610c53565b925060208a01995050600181019050610c8b565b50829750879550505050505092915050565b60006020820190508181036000830152610cef8184610c60565b905092915050565b6000604051905090565b600080fd5b600080fd5b610d1481610b68565b8114610d1f57600080fd5b50565b600081359050610d3181610d0b565b92915050565b600060208284031215610d4d57610d4c610d01565b5b6000610d5b84828501610d22565b91505092915050565b600082825260208201905092915050565b6000610d8082610ad8565b610d8a8185610d64565b9350610d9a818560208601610af4565b610da381610b1e565b840191505092915050565b610db781610b68565b82525050565b610dc681610ba1565b82525050565b600060a0820190508181036000830152610de68188610d75565b90508181036020830152610dfa8187610d75565b9050610e096040830186610dae565b610e166060830185610dae565b610e236080830184610dbd565b9695505050505050565b610e3681610ba1565b8114610e4157600080fd5b50565b600081359050610e5381610e2d565b92915050565b600060208284031215610e6f57610e6e610d01565b5b6000610e7d84828501610e44565b91505092915050565b600060a0830160008301518482036000860152610ea38282610b2f565b91505060208301518482036020860152610ebd8282610b2f565b9150506040830151610ed26040860182610b72565b506060830151610ee56060860182610b72565b506080830151610ef86080860182610bb3565b508091505092915050565b60006020820190508181036000830152610f1d8184610e86565b905092915050565b600080fd5b600080fd5b7f4e487b7100000000000000000000000000000000000000000000000000000000600052604160045260246000fd5b610f6782610b1e565b810181811067ffffffffffffffff82111715610f8657610f85610f2f565b5b80604052505050565b6000610f99610cf7565b9050610fa58282610f5e565b919050565b600067ffffffffffffffff821115610fc557610fc4610f2f565b5b610fce82610b1e565b9050602081019050919050565b82818337600083830152505050565b6000610ffd610ff884610faa565b610f8f565b90508281526020810184848401111561101957611018610f2a565b5b611024848285610fdb565b509392505050565b600082601f83011261104157611040610f25565b5b8135611051848260208601610fea565b91505092915050565b60008060006060848603121561107357611072610d01565b5b600084013567ffffffffffffffff81111561109157611090610d06565b5b61109d8682870161102c565b935050602084013567ffffffffffffffff8111156110be576110bd610d06565b5b6110ca8682870161102c565b92505060406110db86828701610e44565b9150509250925092565b60006020820190506110fa6000830184610dae565b92915050565b7f4e487b7100000000000000000000000000000000000000000000000000000000600052601160045260246000fd5b600061113a82610b68565b915061114583610b68565b925082820190508082111561115d5761115c611100565b5b92915050565b7f4e487b7100000000000000000000000000000000000000000000000000000000600052602260045260246000fd5b600060028204905060018216806111aa57607f821691505b6020821081036111bd576111bc611163565b5b50919050565b7f4e487b7100000000000000000000000000000000000000000000000000000000600052603260045260246000fd5b7f55736572206e6f7420666f756e64000000000000000000000000000000000000600082015250565b6000611228600e83610d64565b9150611233826111f2565b602082019050919050565b600060208201905081810360008301526112578161121b565b9050919050565b7f5573657220616c72656164792065786973747300000000000000000000000000600082015250565b6000611294601383610d64565b915061129f8261125e565b602082019050919050565b600060208201905081810360008301526112c381611287565b9050919050565b60008190508160005260206000209050919050565b60006020601f8301049050919050565b600082821b905092915050565b60006008830261132c7fffffffffffffffffffffffffffffffffffffffffffffffffffffffffffffffff826112ef565b61133686836112ef565b95508019841693508086168417925050509392505050565b6000819050919050565b600061137361136e61136984610b68565b61134e565b610b68565b9050919050565b6000819050919050565b61138d83611358565b6113a16113998261137a565b8484546112fc565b825550505050565b600090565b6113b66113a9565b6113c1818484611384565b505050565b5b818110156113e5576113da6000826113ae565b6001810190506113c7565b5050565b601f82111561142a576113fb816112ca565b611404846112df565b81016020851015611413578190505b61142761141f856112df565b8301826113c6565b50505b505050565b600082821c905092915050565b600061144d6000198460080261142f565b1980831691505092915050565b6000611466838361143c565b9150826002028217905092915050565b61147f82610ad8565b67ffffffffffffffff81111561149857611497610f2f565b5b6114a28254611192565b6114ad8282856113e9565b600060209050601f8311600181146114e057600084156114ce578287015190505b6114d8858261145a565b865550611540565b601f1984166114ee866112ca565b60005b82811015611516578489015182556001820191506020850194506020810190506114f1565b86831015611533578489015161152f601f89168261143c565b8355505b6001600288020188555050505b505050505050565b600060408201905061155d6000830185610dae565b61156a6020830184610dbd565b939250505056fea2646970667358221220e6f726985199f1daa956a436902923f83758f4dfef8db5ee6571b657103c7ac364736f6c63430008180033",
  "linkReferences": {},
  "deployedLinkReferences": {}
}